:020000040800F2
:1000000050CF0020C5240008FD150008FF1500088A
:10001000011600080316000805160008000000007D
:1000200000000000000000000000000007160008AB
:100030000916000800000000BBA50008D540000814
:10004000DF240008DF240008DF240008231F000845
:10005000DF240008DF240008DF240008DF24000874
:10006000DF240008DF240008DF240008DF24000864
:10007000DF240008DF240008DF240008DF24000854
:10008000DF240008DF240008DF240008DF24000844
:10009000DF240008DF240008DF240008DF24000834
:1000A000DF240008DF240008DF240008DF24000824
:1000B000DF240008DF240008DF240008DF24000814
:1000C000DF240008DF240008DF240008DF24000804
:1000D000DF240008DF240008DF2400089142000824
:1000E000DF2400085D1F0008DF240008DF2400086B
:1000F000DF240008DF240008DF240008DF240008D4
:10010000DF240008DF240008DF240008DF240008C3
:10011000DF240008DF240008DF240008DF240008B3
:10012000DF240008DF240008DF240008DF240008A3
:10013000DF240008DF240008DF240008DF24000893
:10014000DF240008DF240008DF240008DF24000883
:10015000DF240008DF240008DF240008DF24000873
:10016000DF240008DF240008DF240008DF24000863
:10017000DF240008DF240008DF240008DF24000853
:10018000DF240008DF24000800F002F800F053F834
:100190000AA090E8000C82448344AAF10107DA45E2
:1001A00001D100F048F8AFF2090EBAE80F0013F0E1
:1001B000010F18BFFB1A43F00103184724BB0000CE
:1001C00044BB0000103A24BF78C878C1FAD852075F
:1001D00024BF30C830C144BF04680C6070470000C1
:1001E0000023002400250026103A28BF78C1FBD840
:1001F000520728BF30C148BF0B607047642909F01F
:100200005186782909F08A8663290AF020807329AB
:100210000AF02580002070471FB50AF027FA0AF07F
:1002200059F90400002000210AF00AFA401C60601D
:100230001FBD10B510BD0AF028F91146FFF7ECFFFD
:1002400000F010FF0AF058F903B4FFF7F2FF03BC07
:1002500003F0BEFF10B586B000200190029003901D
:10026000049005A9FD4808F05FFD05A9FC4808F0C9
:100270005BFD05A9FB4808F057FD01F0CFFBFA4CE8
:10028000A168FAA009F09EFDA268FCA101A809F0EE
:10029000A5FD05A8002300901A461946FB4806F064
:1002A00013FE102301AA0221002001F085FC05AAFB
:1002B0000021F64806F05FFF40F6B83003F05DFF1E
:1002C00001F0ACFB05A9E54808F0C5FA05A9E4482A
:1002D00008F0C1FA05A9E34808F0BDFA06B010BD60
:1002E00000B589B00020079006900290039004901A
:1002F000059001F07BFE06A801F095FE9DF81920FF
:100300009DF81810E2A009F05DFD01A9D34808F09E
:100310000BFD01A9D24808F007FD01A9D14808F05A
:1003200003FD01F07BFB9DF819309DF81820DBA13F
:1003300002A809F053FD01A8002300901A461946AF
:10034000D24806F0C1FD102302AA0221002001F0CC
:1003500033FC01AA0021CD4806F00DFF4FF47A606E
:1003600003F00BFF01F05AFB01A9BC4808F073FA37
:1003700001A9BB4808F06FFA01A9BA4808F06BFA66
:1003800009B000BD00B589B000200790069002902A
:1003900003900490059001F029FE06A801F043FEA9
:1003A0009DF81B209DF81A10BFA009F00BFD01A9B4
:1003B000AA4808F0B9FC01A9A94808F0B5FC01A9B0
:1003C000A84808F0B1FC01F029FB9DF81B309DF80E
:1003D0001A20B8A102A809F001FD01A8002300908D
:1003E0001A461946A94806F06FFD102302AA0221F9
:1003F000002001F0E1FB01AA0021A44806F0BBFEA9
:100400004FF47A6003F0B9FE01F008FB01A99348AC
:1004100008F021FA01A9924808F01DFA01A99148B3
:1004200008F019FAACE71FB50025ADF808502E46C4
:10043000A3A009F0C7FCDFF85492DFF8A4A2A9F149
:10044000F509894CA9F10B0B4FF0010803A8CDE980
:1004500000508E48002202AB1146303807F0B8F841
:100460000028F3D0BDF808100029EFD000782178DB
:1004700031B1012949D04FF47A7003F07EFEE5E7EF
:10048000A0F13001092905D894F9011009F80100FB
:10049000491C6170232802D060780A28D6D1002038
:1004A0009BF8007001465B4619F8012013F800C064
:1004B000624504D1401CC0B206280AD003E00020E7
:1004C000BA4200D10120491CC9B20A29ECD35EB15D
:1004D00013E084F8008083A009F074FC01265746DD
:1004E000CAF8A082322004E05746CAF8A0824FF42E
:1004F000FA6003F042FEC7F8A0527E48657040F8EB
:100500006F5F456005818572A0E7412813D04228BE
:1005100014D0432815D044281AD02A2896D1BFF3E6
:100520004F8F75480168754A01F4E061114301601D
:10053000BFF34F8FFEE7FFF725FF87E7FFF7D0FEFA
:1005400084E701F048FE01466DA009F03BFC7DE721
:10055000FFF780FE7AE786B0002401218DF80C4079
:10056000084602F096FA0820019001208DF8080054
:100570008DF80A4003208DF809008DF80B4001A981
:10058000634802F083F8634D0226042704ACD5F8D3
:100590000C0210B18DF80C6001E08DF80C703B4836
:1005A0000023012203A99038009407F094F9322027
:1005B00003F0E3FD002335481A4619462C30009419
:1005C00007F0C4FAE3E70EB5002425468DF8044091
:1005D00051A009F0F7FB02AE84B1012C17D0022C18
:1005E000FAD101F082FE8DF804004E28F4D129469C
:1005F00051A009F0E7FB00244E25EDE701F075FE60
:100600008DF804004E28E7D005460124E4E701F008
:100610006CFE8DF804004E28DED0A842DCD10146E5
:1006200048A009F0CFFB19480023012201A9303866
:10063000009607F050F90224CEE70EB500208DF8A1
:10064000080044A009F0BEFB01AE4FF47A7801F037
:10065000C2FD0146401C00D08AE0ABE0D00900207A
:1006600094120020E02C00200000002072756E2003
:1006700074696D653A2564730D0A000072756E2009
:1006800074696D653A25647300000000F050002025
:10069000483A25642E256420200D0A0048756D69AE
:1006A0003A25642E25640000543A25642E256420E2
:1006B000200D0A0054656D703A25642E25640000F3
:1006C0007461736B5F6B657976616C7565206973B6
:1006D00020637265617465206F6B0D0A0000000075
:1006E00000804242706173737764206F6B21212117
:1006F0000D0A00008C4F00200CED00E00400FA050C
:1007000064697374616E63653D25646D6D0D0A00E7
:1007100000000240000040427461736B5F6B6579BA
:10072000626F617264206973206372656174652011
:100730006F6B0D0A000000004B45592025632055C2
:10074000700D0A004B455920256320446F776E0DCC
:100750000A0000007461736B5F7372303420697338
:1007600020637265617465206F6B0D0A00000000E4
:10077000A1F1140040F68C72904267D8FC484068A2
:10078000814263D8AFF2880009F01CFB00240E25DB
:100790000827E00712D08DF808700023012202A973
:1007A000F448009607F097F8BDF8040048B181B20C
:1007B000F1A013E0F9A009F005FB47E08DF808501F
:1007C000EBE70023EB481A461946BC30009607F0C9
:1007D000BDF9BDF8040020B181B2F4A009F0F2FA2D
:1007E00005E0322003F0C9FC641C0E2CD1D301A912
:1007F000F84808F099FA01A9F74808F095FA01A914
:10080000F64808F091FA01F0EDF8642003F0B5FC29
:1008100001F004F9F24800210090082380220846E4
:1008200001F014FA404603F0A8FC01F0F7F8642048
:1008300003F0A3FC01A9E74808F00DF801A9E64878
:1008400008F009F801A9E54808F005F8404603F06A
:1008500094FCFCE61FB50024ADF80840E1A009F0C7
:10086000B1FAE74D03AE0127C248CDE900460022A8
:1008700002AB1146303006F0ABFE48B1BDF80810AF
:1008800031B1007810B1C5F8A07201E0C5F8A042FE
:10089000B84803AA0021E43007F0B4FAE4E71FB532
:1008A0000024ADF80840D7A009F08CFAD44DDB4FF6
:1008B0000DF10C080126CDE90048002202AB1146DB
:1008C000AC4806F085FE00B3BDF80810E9B1007829
:1008D000012809D058B102280CD004280DD00E28C8
:1008E0000ED008280FD010E0C5F8A4420DE0C5F8DE
:1008F000A4620AE0C5F8A84207E0C5F8A86204E0CF
:10090000C7F8B84201E0C7F8B8629A4803AA0021C4
:10091000BC3007F077FACEE71FB500278DF80C70D2
:10092000BFA009F04FFA4FF484794FF0010802AEEE
:100930009048CDE900764B4600220221583805F058
:10094000D0FB8007F4D502A9A24808F0EDF902A96E
:10095000A14808F0E9F902A9B84808F0E5F901F062
:1009600041F8642003F009FC01F058F8B448002174
:10097000009008238022084601F068F90025002431
:10098000E0070ED08DF80C700023012203A97948EE
:10099000009606F0A0FFBDF8080028B181B2A9A01A
:1009A00024E08DF80C80EFE7322003F0E6FBE0074F
:1009B00019D08DF80C706F480023012203A9303044
:1009C000009606F088FFBDF808000028E6D1002355
:1009D00068481A461946BC30009607F0B7F8BDF8CB
:1009E000080088B905E08DF80C80E4E709F0EAF921
:1009F00013E000235F481A461946E430009607F0DA
:100A0000A5F8BDF8080010B181B29AA0EEE7642005
:100A100003F0B3FB641C042CB2D34FF4FA7003F060
:100A2000ACFB6D1C032DAAD300F0F8FF642003F08B
:100A3000A4FB02A9674807F00EFF02A9664807F069
:100A40000AFF02A97D4807F006FF71E78EB0002477
:100A5000029403940494059406940794089492A035
:100A6000099409F0AFF94FF484760CAD4148334650
:100A7000002201215838CDE9004505F032FBBDF8D0
:100A8000301019B18EA009F09DF9EFE7C007EDD045
:100A90000AA9012002F03FFC0BA9012002F0B3FCDF
:100AA0009DF82E0000909DF82D309DF82F208EA1EE
:100AB00006A809F093F99DF82A0000909DF82930C6
:100AC0009DF828208DA102A809F088F90023294863
:100AD0001A4619469030009506F0F6F900211023C9
:100AE00006AA084601F068F8102302AA0221002095
:100AF00001F062F81F480CAA0021903006F03BFB81
:100B0000B4E788B00024ADF8084026467FA009F07D
:100B100059F986A009F056F9DFF854B04FF0010AF0
:100B200007A8CDE900401348002202AB1146303837
:100B300006F04EFD5FEA0009F2D0BDF8080000287B
:100B4000EED0272000F06AFC4A46BDF808107FA0CE
:100B500009F038F99BF800005F46012806D000280C
:100B600005D04FF47A7003F008FBD9E7F6E02AE2EB
:100B700000000020605000205B7461736B5F737233
:100B800030345D5B4F5351506F73745D4572726FBB
:100B90007220436F64652025640D0A00737230343F
:100BA000206572726F72210D0A0000005B74617320
:100BB0006B5F737230345D5B4F5353656D50656E80
:100BC000645D4572726F7220436F6465203D20251D
:100BD000640D0A00D00900200C01002094120020AE
:100BE0008EB200087461736B5F6265657020697313
:100BF00020637265617465206F6B0D0A0000000050
:100C0000008042427461736B5F6C6564206973207D
:100C1000637265617465206F6B0D0A0000004242CB
:100C20007461736B5F616C61726D206973206372B4
:100C300065617465206F6B0D0A000000E02C0020D8
:100C40008EB600085B6170705F7461736B5F727465
:100C5000635F616C61726D5D5B4F5351506F737474
:100C60005D4572726F7220436F64652025640D0AC2
:100C7000000000005B6170705F7461736B5F727481
:100C8000635F616C61726D5D5B4F5353656D506561
:100C90006E645D4572726F7220436F6465203D2003
:100CA00025640D0A000000007461736B5F72746349
:100CB00020697320637265617465206F6B0D0A0093
:100CC0005B7461736B5F7274635D5B4F53466C6101
:100CD0006750656E645D4572726F7220436F646524
:100CE000203D2025640D0A003230253032782D2534
:100CF0003032782D253032780000000025303278EF
:100D00003A253032783A2530327800007461736BBE
:100D10005F66756E635F75736172743320697320EB
:100D2000637265617465206F6B0D0A00706C65619C
:100D3000736520696E7075742074686520706173C6
:100D40007377642121210D0A000000006D7367286C
:100D50002564293A2025730D0A000000F6A14846B3
:100D600009F0B8F968B3F7A1484609F0ADF9F5A163
:100D7000002009F0A9F909F099F9A0F5FA60C0B2CC
:100D800001F005F98DF81300EEA1002009F09CF99F
:100D900009F08CF9C0B201F0FAF88DF81100E9A160
:100DA000002009F091F909F081F9C0B201F0EFF8E3
:100DB0008DF812008DF810A004A9012002F0D5FAD8
:100DC00045E1E1A1484609F085F9002850D0DDA1B0
:100DD000484609F079F9DFA1002009F075F980464D
:100DE00003F0C6FBDC4F3978491C397003F0C4FBB3
:100DF000404609F05BF9C0B201F0C9F88DF80C006B
:100E0000404609F053F90C2802DA8DF80F4002E051
:100E100040208DF80F00CFA1002009F055F909F00E
:100E200045F9C0B201F0B3F88DF80D00C9A100205A
:100E300009F04AF909F03AF9C0B201F0A8F88DF8C2
:100E40000E0003A9012002F016FA03F091FB397895
:100E5000491E11F0FF01397007D1C049098821B13D
:100E600003F08AFB05F005F8F1E003F085FBEEE006
:100E7000BBA1484609F02EF9002856D0B1A148463A
:100E800009F022F9B3A1002009F01EF9804603F011
:100E90006FFBB14F3978491C397003F06DFB404648
:100EA00009F004F9C0B201F072F860F3070540469A
:100EB00009F0FCF80C2802DA64F31F6502E0402018
:100EC00060F31F65A3A1002009F0FEF809F0EEF819
:100ED000C0B201F05CF860F30F259EA1002009F07C
:100EE000F3F809F0E3F8C0B201F051F8DDE905329A
:100EF00060F317454FF00041284600F0D5FF03F09E
:100F000037FB3978491E11F0FF01397007D1934939
:100F1000098821B103F030FB04F0ABFF01E003F0DE
:100F20002BFB91A008F04EFF91E093A1484609F0F9
:100F3000D1F810B1FFF726FA89E091A1484609F0EF
:100F4000C9F810B1FFF7CCF981E08FA1484609F04C
:100F5000C1F858B17BA1484609F0B6F879A1002044
:100F600009F0B2F809F0A2F8786070E088A148466C
:100F700009F0B0F810B1FFF76DF968E087A14846B5
:100F800009F0A8F8002862D06EA1484609F09CF844
:100F90006CA1002009F098F8074602F057FEF320F4
:100FA00003F091F801F05EFA0121384601F05EFA93
:100FB00002F058FE01217B4801F073FA79497AA0CA
:100FC00008F000FF43E0272000F028FABDF80810E1
:100FD0004A46AFF2882008F0F5FE77A1484609F0AE
:100FE00073F8704F00210A4697F80080037817F8CD
:100FF00001C0634504D1491C49B206290BD003E066
:101000000021434500D10121521C52B2401C0A2A42
:10101000ECDB96B11BE057468BF800A0AFF63C1016
:1010200008F0D0FEDFF894810126C8F8A0723220C3
:1010300003F0A3F8C8F8A04209E0604FC7F8A0A2E7
:101040004FF4FA6007F5287703F097F83C60BDF895
:101050000810484609F050F8ADF80840272000F085
:10106000D2F95DE58AB003F043F84FF4A06001F0D7
:1010700049FA4FF4165003F0B5F800F085FB00F084
:1010800095FF00F09DFE00F020FF01F07FF801F0D9
:10109000D7F800F0FAFD00F0C1FC02F0D7FDF32014
:1010A00003F011F802F0DEFD01213E4801F0F9F9EC
:1010B0003C4943A008F086FE09A804F070FA002419
:1010C0004FF0330909AF0594CDF808900694CDE9A7
:1010D00007473F494FF4007607252346AFF2DD521C
:1010E000CDE900513A48CDE903643AA1C43806F08D
:1010F000DAFFBDF8240018B139A008F063FEFEE75E
:10110000B8460594CDF808900694CDE907483A48CA
:101110004F460023AFF2CB62CDE90050CDE9036426
:1011200036A1C43806F0BFFFBDF8240018B136A0C0
:1011300008F048FEFEE773E044415445205345540F
:10114000000000002D23000054494D452053455414
:10115000000000003A230000C400002088000020A6
:10116000414C20534554000073657420616C6172DA
:101170006D206F6B0D0A000054454D5000000000BB
:1011800048554D490000000053522053455400007B
:1011900052554E2054494D45000000005041572003
:1011A00053455400F04F0020706173737764323AF6
:1011B0002573200D0A000000230000000080424239
:1011C0007061737377643A2573200D0A0000000084
:1011D000D00100207461736B5F75736172743300AA
:1011E0007461736B20312063726561746520666180
:1011F000696C0D0A00000000940A00207461736B92
:101200005F727463000000007461736B20322063AE
:101210007265617465206661696C0D0A00000000EA
:1012200005940694CDE907488249B1460023AFF6FC
:10123000171201A80095049480E882027D487EA1DF
:10124000C43806F030FFBDF8240018B17EA008F0C5
:10125000B9FDFEE7464605940694CDE90746814967
:10126000C8460023AFF6C91201A80095049480E88F
:1012700082017C487CA1C43806F015FFBDF824002B
:1012800018B17CA008F09EFDFEE705940694CDE918
:1012900007467E490023AFF6432201A80095049437
:1012A00080E8820179487AA1C43806F0FCFEBDF8D6
:1012B000240018B179A008F085FDFEE70594069496
:1012C000CDE90746C1467B49A8460023AFF69542C3
:1012D00001A80095049480E88202764876A1C4387B
:1012E00006F0E1FEBDF8240018B176A008F06AFD12
:1012F000FEE70297059406944D46CDE90746B946A8
:10130000764947460023AFF64152CDE90081734844
:10131000CDE9035472A1C43806F0C5FEBDF824001F
:1013200018B173A008F04EFDFEE7B0460594069490
:10133000CDE9074875484E460023AFF6E5520097C1
:10134000CDE90109CDE9035471A1C43806F0ABFE23
:10135000BDF8240018B173A008F034FDFEE7059431
:101360000694CDE9074877480023AFF64572009709
:10137000CDE90106CDE9035473A1C43806F093FE0C
:10138000BDF8240018B174A008F01CFDFEE709ABFD
:10139000002278A17A4804F09CFD794809AB10221C
:1013A00078A1283005F0F9FF754809AB102279A122
:1013B000583005F0F2FF724809AB102278A188304E
:1013C00005F0EBFF6E4809AB102279A1B83005F0AB
:1013D000E4FF6B4809AA7BA1E83005F034FC09ABB7
:1013E00000227CA17E4806F0E0FA7D4809AB00228D
:1013F0007CA1283006F0D9FA09A804F02BFA7CA0C9
:1014000008F0E0FCFEE700F01F02012191404009D6
:10141000800000F1E020C0F80011704700F01F02CA
:10142000012191404009800000F1E020C0F88011C6
:1014300070470000581300207461736B5F7274630F
:101440005F616C61726D00007461736B20616C612F
:10145000726D20637265617465206661696C0D0A46
:10146000000000001C1C00207461736B5F6C6564DD
:10147000000000007461736B206C6564206372650A
:10148000617465206661696C0D0A0000E02400202B
:101490007461736B5F626565700000007461736BEB
:1014A000204245455020637265617465206661691C
:1014B0006C0D0A00A42D00207461736B5F73723091
:1014C000340000007461736B2073723034206372D7
:1014D00065617465206661696C0D0A0068360020DC
:1014E0007461736B5F6B6579626F61726400000099
:1014F0007461736B206B6579626F617264206372D3
:1015000065617465206661696C0D0A002C3F0020DE
:101510007461736B5F626C7565745F636865636B40
:10152000000000007461736B20626C7565745F630A
:101530006865636B20637265617465206661696CC0
:101540000D0A0000F04700207461736B5F6B6579D2
:1015500076616C75650000007461736B206B657952
:1015600076616C756520637265617465206661697A
:101570006C0D0A00675F666C61675F6772700000E0
:1015800008500020675F71756575655F75736172DE
:1015900074330000675F71756575655F6C65640025
:1015A000675F71756575655F626565700000000055
:1015B000675F71756575655F6B657976616C75657B
:1015C00000000000675F6D757465785F6F6C65641F
:1015D00000000000675F73656D5F6C65640000006C
:1015E0001C510020675F73656D5F62656570000068
:1015F0002E2E2E2E2E2E2E0D0A0000007047FEE7F6
:10160000FEE7FEE7FEE77047704700000CB50022DA
:10161000544900920192086840F4803008604FF409
:10162000A043086800F4003001900098401C00902E
:10163000019810B900989842F3D10868800334D516
:101640000120019047484030026842F08052026019
:101650004548026842F4404202604248083002684D
:101660000260026842F400420260026842F4A05242
:101670000260031F3D4A1A600A6842F080720A60E5
:101680000A689201FCD53A4940F205720A60016885
:1016900021F003010160016841F00201016001686D
:1016A000C1F381010229FAD10CBD01920CBD314870
:1016B00010B5016841F4700101602A48016841F0E9
:1016C00001010160274A00210832116002682A4B9B
:1016D0001A400260031D294A1A60026822F480221F
:1016E000026020480C300160FFF790FF21494FF065
:1016F00000608039086010BD70B51A4D0835286843
:101700001F4B204910F00C0004D05E10042803D0B9
:10171000082803D00B601BE00E6019E0114A121D6F
:101720001068C0F38054106800F03F0014B1B6FB9D
:10173000F0F001E0B3FBF0F013681268C3F3881314
:101740005843C2F30142521C5200B0FBF2F0086051
:1017500028680C4AC0F30310121D105C0A68C240CE
:101760000A6070BD00380240007000400854400715
:10177000003C024088ED00E0FFFFF6FE1030002440
:101780000024F4000C0000202DE9FC47012130204A
:1017900001F07FF901248DF8044000268DF80660E1
:1017A0000327DFF850904FF4C0658DF80570009561
:1017B0008DF807406946484600F068FF8DF8044000
:1017C0008DF806608DF805708DF807400A4C4FF4CF
:1017D000C048CDF800806946204600F057FF2946F2
:1017E000484600F0B8FF4146204600F0B4FFBDE88F
:1017F000FC8700000014024000100240FB498022D8
:101800000A6008710020887103224A71C871F84883
:1018100000F03CBF70B50120FFF7F0FFF54D01204F
:10182000C5F89002F44EC6F89C0205F5247506F53D
:10183000277602F083FC00243460012002F07EFC55
:101840002C60BDE87040012002F078BC70B501202A
:10185000FFF7D4FFE74E0020C6F89002E64DC5F82A
:101860009C02012005F5277506F5247602F066FC3A
:1018700001243460204602F061FC2C60BDE8704019
:10188000012002F05BBC70B500242046FFF7B6FFD4
:10189000D84D0120C5F8900202F050FCD648D0F88F
:1018A0001C0210B10124FFF7D1FF0020C5F89002FF
:1018B000012002F043FC204670BD2DE9F04781462F
:1018C00000240120FFF79AFFCA4D0026C5F8906258
:1018D000C94FC7F89C62012002F030FC4FF0010AAA
:1018E000A846C4F107010AFA01F0554610EA090FAB
:1018F00002D0C7F89C5201E0C7F89C62012002F0B8
:101900001DFCC8F89052012002F018FCC8F8906243
:10191000012002F013FC641C082CE2D3BDE8F08720
:1019200010B50446FFF776FF7820FFF7C6FFFFF7F4
:10193000AAFF0020FFF7C1FFFFF7A5FF2046FFF732
:10194000BCFFFFF7A0FFBDE810407FE710B50446DD
:10195000FFF760FF7820FFF7B0FFFFF794FF40200C
:10196000FFF7ABFFFFF78FFF2046FFF7A6FFFFF75C
:101970008AFFBDE8104069E7C0B201B1E6E7CFE7F2
:1019800070B506460025002105F1B000FFF7F4FF11
:1019900000210846FFF7F0FF00211020FFF7ECFFC1
:1019A000002401213046FFF7E7FF641CE4B2802CDD
:1019B000F7D36D1CEDB2082DE5D370BD10B50A4606
:1019C0000446002102F1B000FFF7D6FF102040EAE4
:1019D00014100021FFF7D0FF04F00F00BDE8104005
:1019E0000021C9E710B500218D20FFF7C5FF0021B8
:1019F0001420FFF7C1FF0021BDE81040AF20BBE776
:101A000010B500218D20FFF7B7FF00211020FFF750
:101A1000B3FF0021BDE81040AE20ADE770B5002552
:101A2000002105F1B000FFF7A7FF00210846FFF7EE
:101A3000A3FF00211020FFF79FFF002401210020B9
:101A4000FFF79AFF641CE4B2802CF7D36D1CEDB253
:101A5000082DE5D370BD10B50021B030FFF78CFF25
:101A600000210846FFF788FF00211020FFF784FFC0
:101A7000002401210020FFF77FFF641CE4B2802CCA
:101A8000F7D310BD70B50025002105F1B000FFF7B8
:101A900073FF00210846FFF76FFF00211020FFF7BA
:101AA0006BFF002401210846FFF766FF641CE4B2C7
:101AB000802CF7D36D1CEDB2082DE5D370BD2DE958
:101AC000F041203A00240F468046D5B27F2803D942
:101AD00000208F1C8046FFB2102B394610D0FFF734
:101AE0006DFF464905EB450001EB40050121285DEE
:101AF000FFF742FF641CE4B2062CF7D3BDE8F08187
:101B0000FFF75CFF3E4E04EB05100121305CFFF750
:101B100033FF641CE4B2082CF5D37F1CF9B24046B5
:101B2000FFF74CFF002404EB051030440121007A3C
:101B3000FFF722FF641CE4B2082CF4D3DEE703466F
:101B4000012000E05843491EC9B2FBD270472DE97D
:101B5000F05F0027DDF828A01D4691468B468046A1
:101B60003C464FEA5A0623E0281B401EC1B20A2019
:101B7000FFF7E5FFB9FBF0F00A21B0FBF1F201FB42
:101B8000120027B9691E8C4201DA38B101273030C2
:101B9000C2B206FB0480C0B2534604E006FB0480D8
:101BA000C0B2534620225946FFF789FF641CE4B2B5
:101BB000AC42D9D3BDE8F09F2DE9F04198461746D5
:101BC0000E46044600250DE0434631462046FFF709
:101BD00076FF0834E4B2782C02D90024B61CF6B2A1
:101BE0006D1CEDB27A5D002AEED187E7200000205F
:101BF00000040240000040420080404276A60008F7
:101C00009EA800082DE9F04115460E460746FFF74D
:101C1000D5FE6848002400EB85150121285DFFF7FB
:101C2000ABFE641CE4B2102CF7D3761CF1B238463C
:101C3000FFF7C4FE00242819012190F82000FFF7C7
:101C40009BFE641CE4B2102CF5D357E72DE9F04756
:101C50001F4690460E4682460025DDF8209011E092
:101C600031465046FFF7AAFE544607E019F8050032
:101C700001216D1CFFF780FE641CE4B24445F5D3DE
:101C8000761CF6B2BE42EBD348E67CB501210320B8
:101C900000F0FFFE01268DF80460002480208DF8FE
:101CA0000640032500908DF805508DF807406946E1
:101CB000414800F0EBFC8DF8046010208DF80640E0
:101CC00000908DF805508DF8074069463B4800F0BC
:101CD000DDFCC82002F051FA0021AE20FFF74CFED7
:101CE00000210846FFF748FE00211020FFF744FEC0
:101CF00000214020FFF740FE0021B020FFF73CFE0E
:101D000000218120FFF738FE0021FF20FFF734FE7D
:101D10000021A120FFF730FE0021A620FFF72CFEB6
:101D20000021A820FFF728FE00213F20FFF724FE16
:101D30000021C820FFF720FE0021D320FFF71CFE62
:101D400000210846FFF718FE0021D520FFF714FEFA
:101D500000218020FFF710FE0021D820FFF70CFEA5
:101D600000210520FFF708FE0021D920FFF704FE1F
:101D70000021F120FFF700FE0021DA20FFF7FCFD33
:101D800000211220FFF7F8FD0021DB20FFF7F4FD12
:101D900000213020FFF7F0FD00218D20FFF7ECFD42
:101DA00000211420FFF7E8FD0021AF20FFF7E4FD3C
:101DB0007CBD00008EAE000800040240000002401E
:101DC00070B5012188B0080700F081FE012001F004
:101DD00085FE012000F060FD612000F019FD002863
:101DE000FAD04FF4007000F002FE012000F014FE63
:101DF00001F042F97F200690FF200024079005940F
:101E000005A801F0D4F921208DF8130003258DF8E1
:101E1000115017208DF812008DF8105004A90120E0
:101E200001F0A3FA40208DF80F0010208DF80C006F
:101E300014208DF80D0050208DF80E0003A901200C
:101E400001F019FA002001F000FC042001F0DCFB95
:101E5000002001F0EAFB012001F0F7FB01218803DB
:101E600001F0BDFD4FF4806001F0E2FD4FF480060B
:101E7000304601F0F8F88DF80440082000968DF8FF
:101E8000050001268DF80660684601F093F88DF88C
:101E900008508DF809408DF80A408DF80B6002A8B3
:101EA00000F035FB08B070BD1FB54FF48074002101
:101EB000204601F063FB6A462146012001F0C4FA86
:101EC0000121204601F05AFB1FBDFEB50121080388
:101ED00001F085FD4FF48076304601F0A9FD7402D3
:101EE000204601F0C0F8009400248DF8044008203A
:101EF0008DF8050001258DF80650684601F05AF866
:101F000029208DF808008DF809408DF80A408DF8D9
:101F10000B5002A800F0FBFA0021304601F02EFB26
:101F2000FEBD38B503F0BDFB4FF48044204601F000
:101F30008BFD01280FD11B490A68521C0A606B46B1
:101F400000220121184804F01DFB204601F093FDFA
:101F5000200201F088F803F0AFFB38BD38B503F07C
:101F6000A0FB4FF48054204601F06EFD01280BD1F8
:101F70006B46002202210C4804F004FB204601F0CD
:101F80007AFD600101F06FF803F096FB38BD0A217D
:101F9000B0FBF1F201FB1202B0FBF1F002EB00101A
:101FA000C0B2704708000020085000201CB5012175
:101FB000202000F06EFD4FF48070009001208DF81D
:101FC000040000248DF8064003208DF805008DF8EC
:101FD00007406946034800F059FB0348C0F8A04297
:101FE0001CBD000000140240008042427CB501216B
:101FF000402000F04EFD01208DF8040000208DF8F7
:10200000060003228DF805205E4D4FF400748DF814
:10201000070000946946284600F038FB2146284610
:1020200000F099FB7CBD2DE9FC5F4FF0010A002414
:1020300080468DF804A08DF8064003208DF8050039
:10204000DFF840B14FF400795746CDF800902646AE
:102050008DF807406946584600F018FB4A4DC5F810
:10206000A472C5F8A462142005F5297502F085F85C
:102070002F601E20A5F5297502F060F88DF8046028
:10208000CDF800908DF807606946584600F0FEFADA
:102090004FF47A6609E00120641C02F04FF8B44264
:1020A00003D34FF0FF30BDE8FC9FD5F82402002891
:1020B000F1D1002408E00120641C02F03FF8642CF8
:1020C00002D36FF00100EEE7D5F824020028F2D029
:1020D000002408E00120641C02F030F8642C02D3D4
:1020E0006FF00200DFE7D5F824020028F2D10027C4
:1020F000A94600260725002408E00120641C02F000
:102100001DF8642C02D36FF00300CCE7D9F8240249
:102110000028F2D0282002F011F8D9F8240290B15A
:102120000AFA05F03043C6B2002408E00120641C1E
:1021300002F004F8642C02D36FF00400B3E7D9F87E
:1021400024020028F2D16D1E6DB2002DD3DA08F8FA
:1021500007607F1C7FB2052FCBDB98F8001098F842
:10216000010098F80220014498F803001044084444
:1021700098F80410C0B2814202D06FF0050092E7D7
:10218000002090E700180240000043427CB5012186
:10219000122000F07EFC01208DF8040000248DF850
:1021A0000640032540268DF8055000968DF807401F
:1021B00069461E4800F06AFA8DF804408DF8055013
:1021C00000968DF807406946194800F05FFA1948F3
:1021D000C0F898427CBD70B5164D00240120C5F8AA
:1021E0009802142005F5267501F0A8FF002028604C
:1021F000114E124D08E00120641C01F09FFFB44213
:1022000002D34FF0FF3070BDD5F818020028F2D08D
:10221000002403E0082001F091FF641CD5F81802A7
:102220000028F7D1600800EB400070BD00040240B8
:10223000001002400080404240420F000000424235
:102240002DE9F0410121084600F023FC0121042082
:1022500000F01FFC0121082000F01BFC01211020D0
:1022600000F017FC0121202000F013FC0121402088
:1022700000F00FFC6E4C012600252671A571C020D0
:10228000206003206071E57121466A4800F0FEF984
:102290004FF4A070684F20602146384600F0F6F9F0
:1022A000300220602146654800F0F0F9E6712571A2
:1022B000402020602146624800F0E8F9202020609C
:1022C0002146604800F0E2F97002206021465E4835
:1022D00000F0DCF9F00220602146384600F0D6F923
:1022E0005A48C0F8A052BDE8F0812DE9F05F584E81
:1022F0000027C6F898720125C6F89C52554CC4F8C0
:102300009852C4F8A052022004F50B7401F035FF76
:102310002068A4F50B74002865D0DFF83C91D9F84B
:102320001402002865D0DFF83481D8F81802E0B331
:10233000DFF82CA1DAF82402C0B3C6F89852C6F828
:102340009C72C4F89852C4F8A052022001F015FF04
:10235000D4F82C0258B3D9F8140248B3D8F81802AC
:1023600038B3DAF8240228B3C6F89852C6F89C525B
:102370000020A346C4F89802C4F8A052022004F535
:102380000B7401F0FAFE206878B3D9F814024C46B9
:1023900060B3D8F81802474648B3DAF8240238B3D5
:1023A000C6F89852C6F89C5205E024E025E026E0E5
:1023B00027E028E029E0CBF898520020CBF8A002D3
:1023C00002200BF50B7601F0D8FE306838B3D4F854
:1023D000140230B3D7F8180228B3DAF8240220B375
:1023E0004E20BDE8F09F3120FBE710E011E012E045
:1023F00013E03220F5E73320F3E74120F1E7342002
:10240000EFE73520EDE73620EBE74220E9E737201C
:10241000E7E73820E5E73920E3E74320E1E72A2032
:10242000DFE73020DDE72320DBE74420D9E70000A9
:1024300028000020000C0240000802400014024066
:10244000000002400010024000180240008042429A
:1024500000804142000041420000424200004042F0
:10246000000043420221202001F02FBC2DE9F04161
:1024700007461348002500EB811404F140060CE0E8
:102480007959204601F0F9FC092804D0FFF7EAFF4A
:102490000120BDE8F081241D2D1DB442F0D30020A1
:1024A000F7E7074A10B502EB811101F14003002262
:1024B00002E010C98450121D9942FAD310BD0000E9
:1024C000000001080948804709480047FEE7FEE789
:1024D000FEE7FEE7FEE7FEE7FEE7FEE7FEE7FEE7D4
:1024E00004480549054A064B70470000AF1600082E
:1024F00089010008506F002050CF0020508F00202D
:10250000508F00202849084328490860704730B59B
:102510000F23C27801780125FAB1244A126801F12B
:10252000E02102F4E062C2F5E062C2F30722C2F1E8
:102530000404D3404278A24084781C401443220112
:1025400081F80024007800F01F018D4040098000D0
:1025500000F1E020C0F8005130BD01F01F008540BF
:102560004809800000F1E020C0F8805130BD104AD9
:10257000114001430D48001F016070470B4A121DB6
:102580000029116801D0014300E0814311607047C8
:102590004FF0E0210428086903D020F0040008610E
:1025A000704740F00400FAE70000FA050CED00E087
:1025B00080FFFF1F774910B5884206D101210846E8
:1025C00000F099FA002101205BE07349884206D1AE
:1025D0000121022000F08FFA0021022051E06F4912
:1025E000884206D10121042000F085FA0021042050
:1025F00047E06B49884206D10121082000F07BFAB0
:10260000002108203DE06749884206D101211020C1
:1026100000F071FA0021102033E06349884206D1AE
:102620000121202000F067FA0021202029E05F49E5
:10263000884206D10121402000F05DFA00214020AF
:102640001FE05B49884206D10121802000F053FA47
:102650000021802015E05749884202D101218415CC
:102660000AE05549884202D10121441504E053494A
:1026700088420AD101210415204600F03CFA0021CD
:102680002046BDE8104000F036BA10BDF0B500227B
:1026900001274FF0030C0B6807FA02F52B40AB4201
:1026A0002CD1066853000CFA03F4A64306600E7999
:1026B000D0F800E09E4046EA0E0606600E79012E34
:1026C00001D0022E12D18668A64386604E79D0F8DA
:1026D00008E09E4046EA0E0686604668AE434660C5
:1026E00045688E799640B6B235434560C568A543C6
:1026F000C560CC799C40C3681C43C460521C102A3E
:10270000C9D3F0BD4FF6FF71016000210171417125
:102710008171C171704708B541F480320092C26185
:10272000C1610099C161C169C069009008BD0246DC
:10273000002012690A4200D001207047006980B26F
:1027400070470246002052690A4200D001207047BB
:10275000406980B2704701837047418370470AB176
:1027600001837047418370474161704742694A4025
:10277000426170474B07DB0E9A40C90810B500EB69
:102780008100016A0F249C40A1430162016A114348
:10279000016210BD00000240000402400008024037
:1027A000000C0240001002400014024000180240D9
:1027B000001C024000200240002402400028024089
:1027C000F848016841F001010160F64A0021083231
:1027D00011600268F44B1A400260031DF34A1A604C
:1027E000F04BF34A84331A60F04A103A1B1D1A600A
:1027F000026822F480220260EA480C300160181D51
:1028000001607047E7490022891C0A700870704710
:1028100002460020510901290CD002290CD0E149BF
:102820007431096802F01F02012393400B4200D06B
:1028300001207047DB49F4E7DA497031F1E718B558
:1028400000204FF4A04400903120FFF7E1FF0099F1
:10285000491C0091A14201D00028F5D03120FFF79A
:10286000D7FF002800D0012018BDCE4A116821F002
:10287000F80141EAC00010607047CE490860704717
:10288000C849002270310A700A70012802D0042859
:1028900001D1052008707047C7490860704741EAB8
:1028A00082115A0810B5C54B029C03EB024211433A
:1028B000014341EA0460BB49091D086010BDBD49E0
:1028C00008667047800140EA0170B64984310860AB
:1028D0007047B84988667047800140EA0160B14995
:1028E00040EA0270883108607047B2490867704753
:1028F000B049C8647047AB4B08331A68084322F0EC
:10290000EC62104318607047A64B08331A680843FE
:1029100022F07842104318607047A24A08321168CA
:1029200021F003010143116070479E4808300068A0
:1029300000F00C0070479B4A0832116821F0F0014A
:10294000014311607047974A0832116821F4E05141
:10295000014311607047934A0832116821F46041C5
:1029600041EAC0001060704770B58E4B083319689B
:10297000934C11F00C0104D06610042903D00829EF
:1029800003D004601BE0066019E0864A121D11683E
:10299000C1F38055116801F03F0115B1B6FBF1F1AB
:1029A00001E0B4FBF1F114681268C4F388146143C8
:1029B000C2F30142521C5200B1FBF2F101601968EE
:1029C0000F2202EA11117F4A545C0168E140416024
:1029D0001C68072505EA9424145D21FA04F4846038
:1029E0001B6805EA5333D25CD140C16070BDC0F3AF
:1029F0000121032908D16B4B08331968724A21F46D
:102A0000F81102400A431A60664970310A68C0F33F
:102A10000B0002430A6070476749443908607047F9
:102A200065494039086070476249C1F85C017047E8
:102A30005C4A8C321168401E21F01F010143116075
:102A40007047584A8C3211686FF0FF0321F4F85137
:102A500003EB0020084310607047524A8C32116823
:102A600021F440110143116070474E4A8C321168C5
:102A700021F440010143116070474A4A8C321168C9
:102A800021F440310143116070475049C1F8E00121
:102A90007047444A30320029116801D0014300E0F8
:102AA0008143116070473F4A34320029116801D0D8
:102AB000014300E08143116070473A4A38320029EF
:102AC000116801D0014300E0814311607047354A2D
:102AD00040320029116801D0014300E081431160B8
:102AE0007047304A44320029116801D0014300E0A8
:102AF0008143116070472B4A10320029116801D0C0
:102B0000014300E0814311607047264A14320029D6
:102B1000116801D0014300E0814311607047214AF0
:102B200018320029116801D0014300E0814311608F
:102B300070471C4A20320029116801D0014300E08F
:102B4000814311607047174A24320029116801D06F
:102B5000014300E0814311607047124A503200295E
:102B6000116801D0014300E08143116070470D4AB4
:102B700054320029116801D0014300E08143116003
:102B80007047084A58320029116801D0014300E01B
:102B9000814311607047034A60320029116817D0E1
:102BA000014316E000380240FFFFF6EA103000242F
:102BB0000030002000004742800E47420000FFFF27
:102BC0000024F40030000020FFFCFF0F00104742FB
:102BD000814311607047194A0029116801D00143EF
:102BE00000E081431160704714490C3101280868E6
:102BF00003D020F008000860704740F00800FAE7B2
:102C00000E4A573A0029117801D0014300E0814370
:102C10001170704709481030016841F080710160FF
:102C200070470146054A0020583A12680A4200D00F
:102C300001207047014956390870704764380240D6
:102C4000CD4910B5884206D101211020FFF77BFF46
:102C50000021102020E0C949884202D101214C0402
:102C600029E0C749884202D101218C0423E0C549EB
:102C7000884202D10121CC041DE0C349884202D11F
:102C800001210C0517E0C149884209D1012120200A
:102C9000FFF759FF00212020BDE81040FFF753BF88
:102CA000BB49884202D101218C0704E0B94988421E
:102CB0000AD1012144052046FFF73BFF2046BDE82D
:102CC00010400021FFF735BF10BD7FB50446008AD4
:102CD0000D46C98820F4405001432182A08941F269
:102CE0000C618843A9882A8911436A8902431143E8
:102CF000A181A08A20F44071A8890843A082684677
:102D0000FFF732FE9C48844202D0A048844201D1A1
:102D1000039800E00298A189090400EBC00101EBCF
:102D20000010296801D5490000E08900B0FBF1F0EE
:102D30006422B0FBF2F109010B096FF018056B4337
:102D400000EB8300A3891D044FF0320306D503EB8B
:102D5000C000B0FBF2F000F0070005E003EB00104C
:102D6000B0FBF2F000F00F00084320817FBD4FF46C
:102D70001651016000218180C18001810C224281B5
:102D80008181704710B5028A4C8822F470630A88EA
:102D900022438C88C9880C4322431A43028210BD07
:102DA0000021018041808180C18070470029818994
:102DB00002D041F4005101E021F4005181817047BB
:102DC000028B02F47F420283028B0A430283704724
:102DD0000029818902D041F4004101E0C1F30E01D4
:102DE000818170470029818A02D041F4006101E0AD
:102DF00021F4006181827047C1F30801818070472E
:102E00008088C0F308007047028A22F00F02028215
:102E1000028A0A43028270470029818902D041F068
:102E2000020101E021F0020181817047828922F4D0
:102E30000062828182890A4382817047028A22F07D
:102E400020020282028A0A43028270470029018A14
:102E500002D041F4804101E021F4804101827047B9
:102E6000818941F00101818170470029818A02D066
:102E700041F0080101E021F0080181827047028BD6
:102E8000D2B20283028B42EA0121018370470029FA
:102E9000818A02D041F0200101E021F020018182ED
:102EA00070470029818A02D041F0100101E021F031
:102EB000100181827047828A22F004028282828A13
:102EC0000A43828270470029818A02D041F00201C0
:102ED00001E021F0020181827047002A828A01D03C
:102EE0000A4300E08A438282704710B5C1F342135F
:102EF00001F01F040121A140012B07D0022B07D0B4
:102F00001430002A026805D00A4304E00C30F8E7C8
:102F10001030F6E78A43026010BD02460020128896
:102F20000A4200D001207047C9430180704770B544
:102F300001F01F0501260024C1F3421306FA05F231
:102F4000012B0FD0022B0FD0838A4FEA112100886A
:102F5000134206FA01F600EA060001D000B101248E
:102F6000204670BD8389F0E7038AEEE70A0A012153
:102F70009140C94301807047001001400044004067
:102F800000480040004C0040005000400014014048
:102F900000780040007C0040354900200860091D91
:102FA0000860091D0860091D086031493148143165
:102FB0000860704730B52E4A8379016853B31368AF
:102FC0008B431360111D0B680468A3430B600179E8
:102FD00011440B68046823430B60254B08331968C0
:102FE0000468A14319601C1D21680568A94321607C
:102FF0004179102905D011440A68006802430A602B
:1030000030BD1968026811431960216800680143E6
:10301000216030BD0079104402688A43026030BDEF
:103020000021016001710C224271817170471049C9
:1030300010310A6802430A60704701460C4A0020BA
:10304000143212680A4200D0012070470849143136
:10305000086070470146064A0020143212680A428E
:1030600000D0012070470249143108607047000009
:10307000003C0140FFFF7F0018B50020FA4B009094
:10308000CA20186053201860F7491839086820F0E2
:10309000A00008604FF400340868009A00F0200097
:1030A000521C0092A24201D00028F5D00868800688
:1030B00001D5012000E00020FF21196018BD08B5EE
:1030C000E9490020183900900868400612D44FF0F2
:1030D000FF3008608B130868009A00F04000521C13
:1030E00000929A4201D00028F5D00868400601D429
:1030F000002008BD012008BD78B50024DA4ECA20A2
:1031000000942546306053203060FFF7D8FFE0B3CD
:10311000D54824380460D44942F2011020390860AF
:103120000B1D186800F0070018608D131A1D106839
:10313000009900F00400491C0091A94201D0002828
:10314000F5D01068400729D518681C60C6494FF6AD
:10315000FF7010390860091FC4480860C2480C3865
:103160000460001D0460001D0460BF480830046056
:10317000BD4818300460BC4820300460001D046065
:103180001460B9481C30046000E003E0FFF774FFEE
:1031900020B10125FF203060284678BD0025F9E7E1
:1031A000B1481838016821F080010160704770B59E
:1031B000AD4E04460025CA20306053203060FFF732
:1031C0007EFFA8B1A8481C38016821F040010160C9
:1031D0000168226811430160A348A16814380160A6
:1031E0000168A28841EA02410160FFF7D9FF012589
:1031F000FF203060284670BD002101607F214160C2
:10320000FF2181607047984908B1FF2002E0CA2081
:10321000086053200860704770B5934E054600243F
:10322000CA20306053203060FFF749FF60B18E48FC
:103230001C38016815B141F0100101E021F01001C6
:103240000160FFF7ADFF0124FF203060204670BD14
:10325000854ACA2111605321116083491C39002815
:10326000086802D040F0200001E000F0DF000860B4
:10327000FF20106070472DE9F0410C4600267C4F7E
:1032800001002078396832464FEA416104D00029B4
:103290002FDA00F008FC2DE0002900DBE27000F0DE
:1032A000F6FB0504607800F0F2FB45EA0025A07803
:1032B00000F0EDFB0543E07845EA00456A4CCA2082
:1032C000206053202060FFF7FAFE68B1694805408E
:1032D000674808380560FFF763FF3868800602D446
:1032E000FFF7CAFE00B10126FF2020603046BDE88E
:1032F000F081E270A078217840EA01456078E178B9
:10330000000240EA01400543D8E70021C170017086
:10331000417081707047020010B557480C46016833
:10332000544801EA0001C1F305402070C1F30623AF
:10333000637001F07F03A3704FF0400303EA114173
:10334000E1700AD100F0AFFB2070607800F0ABFBB9
:103350006070A07800F0A7FBA07010BD4248001D6F
:1033600000684349091F0968704770B50C4600267C
:10337000010060780FD000F096FBA07800F093FB7E
:10338000A078E17840EA014560782178000240EABF
:103390004130054315E0C10603D520F010000A3086
:1033A0006070E07800F073FB0504607800F06FFB5C
:1033B00045EA0025A07800F06AFB0543207845EA3D
:1033C0004035294CCA20206053202060FFF777FE4B
:1033D00070B12A4805402648001F0560FFF7E0FE4F
:1033E00023480068800602D4FFF746FE00B101269C
:1033F000FF202060304670BD012101708170417056
:103400000021C1707047020010B51D480C460168CC
:103410001A4801EA00014FEA1140E070C1F30423A9
:10342000637001F03F03A370C1F3423121700AD1F0
:1034300000F039FBE070607800F035FB6070A07838
:1034400000F031FBA07010BD70B514460D46084A5F
:103450000021002810684FEA406013D000282ADAC3
:10346000207800F020FB27E024280040FF007F00A8
:10347000082800407F7F7F00002800403FFFFF00BA
:1034800004280040002800DBE170207800F0FFFAFB
:103490000604607800F0FBFA46EA0026A07800F007
:1034A000F6FA0643E07846EA0046207B00F0EFFAA1
:1034B00046EA006010E0E170207B00F0F4FAA078AA
:1034C0002178E27840EA01406178090241EA02414C
:1034D0000843217B40EA0160A16808436168084312
:1034E000F849CA220A6053220A60B5F5807F04D0E9
:1034F0000A1F1060FF20086070BDF24A083AF8E722
:103500000021C170017041708170012281600273DD
:103510004160704710B514460246B1F5807F2AD04D
:10352000E848001F0168C1F305402070C1F306237D
:10353000637001F07F03A370402303EA1143E3703B
:10354000C1F30563237301F0804301F08031C4E9C6
:103550000113002A0ED100F0A6FA2070607800F066
:10356000A2FA6070A07800F09EFAA070207B00F0B4
:103570009AFA207310BDD3480838D3E738B5002233
:10358000D04C0092CA22226053222260CD4A1C3ABB
:103590000029116802D00143116012E081431160DB
:1035A000C84A183A95131168009B01EA10215B1C68
:1035B0000093AB4201D00029F5D0116811EA102028
:1035C00000D00120FF21216038BD10B5BD4BCA24B9
:1035D0001C6053241C601143B0F5807F05D0B948AE
:1035E00024300160FF20186010BDB6482030F8E795
:1035F000B0F5807F05D0B34824300068C0F30E00DA
:103600007047B0482030F8E7AE4ACA211160532114
:103610001160AC491C390B6823F007030B600B6881
:1036200003430B60FF2010607047A649CA220A605E
:1036300053220A60A34A103A1060FF2008607047C6
:10364000A0481038006880B2704718B500219D4B23
:103650000091CA211960532119609A491C39002828
:10366000086803D040F48060086014E020F48060B3
:103670000860944918398C130868009A00F0040017
:10368000521C0092A24201D00028F5D008684007E1
:1036900001D4002000E00120FF21196018BD894BF2
:1036A00010B5CA221A6053221A60864A1C3A14685E
:1036B00024F4802414601468084304431460FF2039
:1036C000186010BD7F481C38006800F480207047E7
:1036D0007C4B10B5CA221A6053221A60794A1C3AF0
:1036E000146824F4E004146014680843044314606C
:1036F000FF20186010BDF0B5724D06460024CA20A8
:103700000F46286053202860FFF7D9FC30B16D4880
:103710003E430C380660FFF743FD0124FF2028607C
:103720002046F0BD70B5674E05460024CA203060C3
:1037300053203060FFF7C3FC60B162481C38016859
:1037400015B141F0800101E021F080010160FFF737
:1037500027FD0124FF203060204670BD594ACA2150
:1037600011605321116057491C390028086802D0A4
:1037700040F4000001E020F400000860FF20106029
:103780007047504ACA211160532111604D491C39BC
:103790000B6823F400230B600B6803430B60FF20CE
:1037A00010607047F0B5474D0023CA242C605324A5
:1037B0002C60444C183C2668F60308D54FF40036BC
:1037C0002768FF0303D5B34201D05B1CF8E72368E9
:1037D000DB0306D408433B4910431831086001203D
:1037E00000E00020FF212960F0BD364B10B51C3BE6
:1037F0001A6840F60804A24342EA000209B142F402
:1038000000623048CA210160532101601A60FF2123
:10381000016010BD70B50D462A4914460C31096887
:10382000294A1140274A103212684FF63F731A4056
:10383000C1F305432B70C1F306236B7001F07F03C6
:10384000AB70402303EA1141E9700021E170C2F33B
:103850000421617002F03F01A170C2F34231217076
:10386000002817D1287800F01EF92870687800F039
:103870001AF96870A87800F016F9A870607800F05E
:1038800012F96070A07800F00EF9A070207800F0B6
:103890000AF9207070BD0B48143000687047094A5F
:1038A0001C320029116803D041EA400010607047C3
:1038B00021EA4000FAE7034A1C320029116805D0CA
:1038C000014304E0242800407F7F7F008143116092
:1038D000704779490A6822F4C0520A600A680243B4
:1038E0000A60704774490A6822F4E0620A600A6854
:1038F00002430A60704770490A6822F4C0420A60B5
:103900000A6802430A6070476B490028086802D0C1
:1039100040F0800001E020F08000086070476649B8
:103920000028086802D020F4004001E040F4004084
:1039300008607047604A08B5103202EB80000090C2
:10394000016008BD5C4908B5103101EB80000090B2
:10395000006808BD58490A6822F480320A600A6883
:1039600002430A60704754490A6822F400320A6030
:103970000A6802430A6070474F490A6822F48022AD
:103980000A600A6802430A60704770B54A4C002218
:10399000CA231C3C236053232360474B343B1D68E0
:1039A0002D0707D59E141D682D0703D5B24201D0FF
:1039B000521CF8E71A6812070DD43F4A383A1268C9
:1039C000D20608D401433C4814380160FFF754FB89
:1039D00010B1012000E00020FF21216070BD30B552
:1039E000354DCA221C3D2A6053222A60324C20F0F9
:1039F0000402383C0029304B216800F0040004D058
:103A0000114321601968014303E091432160196863
:103A100081431960FF20286030BD024626490020FE
:103A200034390968254B1940114200D001207047F4
:103A300080B240F08000C1431F483438026802F071
:103A400080021143016070471B4A0021126802F096
:103A50000403194A383A126803EAD03302401A4381
:103A6000174B1B6803EA101003D00004000C00D0B1
:103A7000012108467047C0F30F1040F08000C14399
:103A80000F48026802F08002114301607047002174
:103A900003E0491C0A38C9B2C0B20A28F9D20907A2
:103AA00040EA11607047010901EB810100F00F004D
:103AB00000EB4100C0B27047402800407F3F01004A
:103AC0000C28004010B501210C072046FFF731F803
:103AD0002046BDE810400021FFF72BB8404908629E
:103AE0007047404A116821F0E001014311607047BE
:103AF0003B49086170473A49C1F8A000704738490E
:103B0000C1F8A4007047374A116821F440410143CD
:103B10001160704732490864704731494864704702
:103B200030490028086802D040F4402001E020F429
:103B30004020086070472A4900B10120C8627047E0
:103B4000274900B1012088627047254948627047C3
:103B5000244B10B51A6840F60344A24302431A608E
:103B60002148026842F004020260012905D020BF0A
:103B7000016821F00401016010BD30BFF8E7194B66
:103B800010B51A6840F60344A24302431A6016486F
:103B9000026842F004020260012905D020BF0168DA
:103BA00021F00401016010BD30BFF8E70D48016845
:103BB00041F0020101600C48016841F0040101601C
:103BC00030BF7047074A0146002052680A4200D0C1
:103BD0000120704703490A6842EA80000860704784
:103BE00000000E420070004010ED00E0F94908703E
:103BF0007047F8490028086802D040F4807001E05E
:103C000020F4807008607047F2490028086802D0EC
:103C100040F4007001E020F4007008607047ED4946
:103C20000028086802D040F4806001E020F4806041
:103C300008607047E748016841F40061016070471F
:103C4000E448016841F4805101607047E148103058
:103C50000068002805DADF48DF49001D0160DF4900
:103C600001607047DB481030016841F0004101609D
:103C70007047D84909200C310A68D20301D50120C8
:103C800070470A68D20601D5062070470A68D20537
:103C900001D5022070470A6812F0EF0F01D007200B
:103CA000704709688907FBD50820704708B50920C7
:103CB0008DF80000FFF7DDFF8DF800009DF8000093
:103CC0000128F7D09DF8000008BD70B50646002514
:103CD00029B1012928D0022929D04FF44075FFF7D6
:103CE000E5FF09281FD1BB4C1034206820F4407038
:103CF0002060206828432060206820F0F8002060C1
:103D0000206846F0020108432060206840F48030BB
:103D10002060FFF7CBFF216821F0020121602168BC
:103D200021F0F801216070BD4FF48075D7E74FF4A2
:103D30000075D4E730B504460025FFF7B7FF2CB176
:103D4000012C1DD0022C1ED04FF44075092816D12D
:103D5000A04C1034206820F4407020602068284374
:103D60002060206840F004002060206840F480302B
:103D70002060FFF79BFF216821F00401216030BD26
:103D80004FF48075E2E74FF40075DFE730B5044685
:103D90000025FFF78BFF2CB1012C1DD0022C1ED06B
:103DA0004FF44075092816D18A4C1034206820F44D
:103DB00040702060206828432060206840F00400A4
:103DC0002060206840F480302060FFF76FFF21689A
:103DD00021F00401216030BD4FF48075E2E74FF41B
:103DE0000075DFE730B504460025FFF75FFF2CB113
:103DF000012C1DD0022C1ED04FF44075092816D17D
:103E0000744C1034206820F44070206020682843EF
:103E10002060206840F400402060206840F480303A
:103E20002060FFF743FF216821F40041216030BD8D
:103E30004FF48075E2E74FF40075DFE7F0B5164602
:103E40001F460546FFF732FF092815D1614C103493
:103E5000206820F440702060206840F440702060AA
:103E6000206840F0010020602E606F60FFF71EFFA9
:103E7000216821F001012160F0BD70B50D460646B4
:103E8000FFF714FF092814D1524C1034206820F495
:103E900040702060206840F400702060206840F08E
:103EA000010020603560FFF701FF216821F001016A
:103EB000216070BD70B50D460646FFF7F7FE092874
:103EC00014D1444C1034206820F4407020602068E5
:103ED00040F480702060206840F001002060358050
:103EE000FFF7E4FE216821F00101216070BD70B58B
:103EF0000D460646FFF7DAFE092812D1354C10347C
:103F0000206820F44070206020682060206840F025
:103F1000010020603570FFF7C9FE216821F0010122
:103F2000216070BD2B4814300068C00705D02948B7
:103F30002B49083001602B49016070472548143037
:103F4000016841F001010160704730B50D4604463B
:103F5000FFF7ACFE092807D11E48163001880DB1C5
:103F6000A14300E02143018030BD30B50D46044639
:103F7000FFF79CFE092807D116481A3001880DB1B9
:103F8000A14300E02143018030BD124A173211786D
:103F900001F07F0108431070704730B50D460446AC
:103FA000FFF784FE092807D10A4A163210880DB19E
:103FB000204300E0A043108030BD30B50D460446DC
:103FC000FFF774FE092811D1024A1A3210885DB138
:103FD00020430AE0003C024023016745AB89EFCD56
:103FE0003B2A19087F6E5D4CA043108030BD10B590
:103FF0000446FFF75BFE092801D13548047010BD67
:1040000070B515460C460646FFF750FE092808D144
:104010002F49491E087800F00F0004432C43344315
:104020000C7070BD2A49491E0A7822F010020A70ED
:104030000A7802430A7070472549491E0A7822F01F
:104040000C020A700A7802430A7070472048401E2A
:10405000017841F00201017028E61D48401E006809
:10406000C0F3471070471A48401C00887047184832
:10407000401D008870471648401C0088704714484F
:10408000401D00887047124900200978AA2900D0F5
:10409000012070470E48401E007800F00C00704769
:1040A0000B4A521F0029116801D0014300E08143EF
:1040B000116070470146064A0020093A12680A4218
:1040C00000D001207047024909390860704700009C
:1040D000153C0240374810B50078012807D101F09F
:1040E000E0FA05F06EF9BDE8104001F0E5BA10BD48
:1040F00010B56FF00400FEF74BFA2F482F49304BF4
:104100000068314CB0FBF1F2B0FBF1F01A802D4A9F
:104110001168B4FBF1F1414310684FF47A72B2FBBD
:10412000F0F058804FF0E020026942F00202026194
:104130004161016941F00101016110BDF8B54FF025
:10414000E02700247E691E49098800FB01F56846C6
:1041500001F019FBB969B8698842FCD002D2A1EB21
:10416000000102E0A6EB000211440C440146AC42FF
:10417000F1D3684601F040FBF8BD38B504460D4860
:10418000007888B11148007870B90D4D6888844274
:1041900005D3B4FBF0F06A46082104F0B5FF688847
:1041A000B4FBF0F100FB11444FF47A706043FFF769
:1041B000C5FF38BD7D0000200C00002000127A00F1
:1041C0004000002070BC000840420F007C0000202E
:1041D00070474C490A885206FCD54A4AC1B2121DA2
:1041E00011807047F0B5064687B001210220FEF726
:1041F00050FC01218804FEF76AFC434D07220B2185
:104200002846FEF7B7FA07220A212846FEF7B2FA37
:1042100002218DF814108DF815104FF44060002421
:1042200004908DF8164001278DF8177004A92846D0
:10423000FEF72CFAADF80440ADF80640ADF80840A2
:10424000ADF80C400C202F4CADF80A0000966946E2
:104250002046FEF73AFD01212046FEF7A7FD40214A
:104260002046FEF761FE012240F225512046FEF76E
:104270003CFE27208DF8180003208DF819008DF8DA
:104280001A008DF81B7006A8FEF741F907B0F0BDC3
:104290002DE9FC41002401F004FA1A4E40F22557A2
:1042A00039463046FEF743FE184D98B13046FEF7CA
:1042B000A7FD17492A68C0B288542968491C29609B
:1042C000232802D02868802800D3012439463046AC
:1042D000FEF74CFE01F0F0F9002C11D001A800907F
:1042E0002868002382B20A490A4803F0F4FA002041
:1042F0002860BDF80410002902D007A005F062FD77
:10430000BDE8FC8100480040000402404400002059
:104310006C510020305000205B5553415254335FA4
:1043200049525148616E646C65725D4F5351506FD4
:104330007374206572726F7220636F6465202564E8
:104340000D0A00001FB56846FEF70EFB019804B089
:1043500010BD10B5FFF7F6FF11490A6842F08072F0
:104360000A60104900224A600A6842F001020A60AD
:10437000BDE8104000F076B80A484068704710B5B4
:104380000446FFF7DFFF0021074A0B4605F0A3FCB8
:1043900002460B462046002105F09DFC10BD0000A2
:1043A000FCED00E0001000E040420F0010B500F00E
:1043B000DFF804461021694800F0D8F92046BDE82E
:1043C000104000F0D9B8664910B500200860FFF72A
:1043D000C0FFBDE81040E9E7FEE770B505460C00F8
:1043E0000ED075B100F0C4F8064610225B4928468D
:1043F00000F0C4FC304600F0BFF80020208070BD03
:10440000FEE70A20088070BD70B50C00054612D08A
:1044100095B1102100F0A4FC102810D200F0A8F8EB
:104420000646102229464D4800F0A8FC304600F010
:10443000A3F8002005E0FEE70A20088070BD4FF4D5
:104440007A70208070BDFFF797BF7047020004D0DC
:104450004348006810B1002102E0FEE74FF4FA6122
:10446000118070473E490860704710B500F08BF826
:10447000183810BD10B500F086F8103810BD00F0E7
:1044800082B8F0B50C0E0B0C0D0A0026354AD0F19F
:10449000FF378E411BD24FF6FF76D0F1FF378E41AA
:1044A0000AD26FF07F45D0F1FF308D4101D2105D0F
:1044B000F0BDD05C0830F0BDFF23D0F1FF308B4160
:1044C00002D2505D1030F0BD505C1830F0BD4FF698
:1044D000FF740023241A8B4111D26FF07F44002314
:1044E000241A8B4105D2000E40EA0120105C2030D6
:1044F000F0BD000C40EA0140105C2830F0BD002304
:10450000D0F1FF048B4105D2000A40EA0160105C43
:104510003030F0BD105C3830F0BD08B100F036B876
:104520000820704708B100F031B81020704708B17A
:1045300000F02CB82020704700B550EA01020BD0E3
:10454000C243521CCB4343F1000310401940FFF714
:1045500098FFC0F13F0000BD402000BDEC5100209D
:104560004C0000208EBA000872B6704762B67047E1
:10457000EFF3108072B6704780F31088704730BF39
:10458000704720BF7047B0FA80F0704790FAA0F0F3
:10459000B0FA80F0704790FAA0F07047A0F14101A6
:1045A000192902D96138192801D801207047002043
:1045B0007047A0F14101192905D92039192902D9DB
:1045C0003038092801D80120704700207047613831
:1045D000192801D801207047002070474138192858
:1045E00001D801207047002070473038092801D8D1
:1045F00001207047002070473038072801D801207B
:10460000704700207047A0F13001092905D9113900
:10461000052902D96138052801D8012070470020FA
:104620007047202803D0092801D0002070470120BE
:10463000704720280BD00D2809D00A2807D00C2855
:1046400005D0092803D00B2801D000207047012095
:10465000704720385E2801D801207047002070473D
:1046600021385D2801D80120704700207047A0F153
:1046700020015E2916D8202814D00D2812D00A282F
:1046800010D00C280ED009280CD00B280AD02139C4
:104690001A2907D320391A2904D330380A2801D31C
:1046A000012070470020704741B2002901DB1F281C
:1046B00003D97F2801D00020704701207047A0F166
:1046C0004101192900D82030C0B27047A0F1610122
:1046D000192900D82038C0B2704700B50B46FFF743
:1046E000F5FF02461846FFF7F1FF824201D1012093
:1046F00000BD002000BD0000FD48FE490246C0E9A3
:10470000001200218160C160016141618161C1616C
:1047100001620163C162416200F148018163C163CA
:104720004FF4806101644164F3480260704710B542
:1047300000231C46641C41EA0323042CFAD310F026
:10474000030404D109E0521E00F8011B641C22B1CD
:10475000042CF8D301E008C0121F042AFBD202E0A7
:1047600000F8011B521E002AFAD110BD0A46002192
:10477000DDE730B4814202D930BC00F0C5BD104441
:104780001144401E491E431A042B28D300F0030392
:1047900001F00304A34201D1012400E00024F4B19C
:1047A000032B07D109E05B1E11F8014900F801490C
:1047B0005BB2521E0AB1002BF5DAC01EC91E04E01E
:1047C00051F8043940F80439121F042AF8D2C01CE9
:1047D000C91C04E011F8013900F80139521E002A01
:1047E000F8D130BC704770B5034662B16BB161B1AE
:1047F00013441144012003F0030401F00305AC420B
:1048000005D1012504E0012070BD002070BD002508
:10481000DDB1BCB113F8015D11F8016DB54200D0F6
:104820000020521E641E0128F0D1002AF1D109E0B7
:1048300053F8044D51F8045DAC4200D00020121F23
:1048400001280AD1042AF3D207E013F8014D11F828
:10485000015DAC4200D00020521E0128D6D1002AB2
:10486000F3D170BD30B5C36BB3FBF2F402FB14346B
:104870000CB1121B00E00022446C11448C4201D2A6
:10488000002030BD5D18611AC5631A4441641046AA
:1048900030BD10B5B0FBF3F403FB140000B1181ADF
:1048A000B2FBF3F403FB14240CB11B1B00E0002348
:1048B00010441A44491E02FB010010BD2DE9FC5FA3
:1048C0001F4614008A46834600D101AC0020884E62
:1048D0002060FFF74DFE009053465A460121D6F85E
:1048E0004480F06BFFF7D5FF054642F2E279404580
:1048F00006D90098FFF740FEA5EB0800206012E003
:10490000524659463046FFF7ADFF0600009807D0E3
:10491000FFF732FE42F2107038803046BDE8FC9F4F
:10492000FFF72AFE2560A7F800900020F6E72DE9A2
:10493000F04116460D460446FFF71AFE6368996B70
:1049400001B96B4BDF6B5C6CFFF716FE012D06D9CE
:10495000B7FBF5F005FB107000B1281A241A42F2DB
:10496000107030802046BDE8F0810A46014660485C
:10497000DDE7B8B1614A0260002242608260C26035
:10498000026142618261C2610262826242630263C9
:10499000C26242628263C2630264426442F2107085
:1049A0000880704742F21170FAE72DE9FF4F89B095
:1049B0008A46DDE91879044607B906AF0020386059
:1049C00049462046FFF7D5FFB9F80010A1F51C5065
:1049D000103859D14848006890B10020DFF81081A4
:1049E0000290FFF7C5FD05905FEA0A000BD0024672
:1049F0000B98002613184048B3465B1E056848E034
:104A000042F2E7713EE0D8F83C1003910423C3461C
:104A100045461A460C990398FFF73BFF039904900B
:104A200008440890DDE916230C99FFF732FF009047
:104A300000990498464608440290D8F84410019121
:104A4000884261D90598FFF797FDDDE901103CE048
:104A5000A86B504506D1D5F840C00B998C4501D1C3
:104A60002E4618E0296C0144491E834213D382422A
:104A700003D98B4201D98A4209D80598FFF77CFDFA
:104A800042F27F71A9F800100DB0BDE8F08FAB467F
:104A9000ED68002DDCD136B9C4E90EAA0B9820646C
:104AA0000B982646606404231A46D8F83C000C99FB
:104AB000FFF7EFFE0490D8F844100191884206D920
:104AC0000598FFF759FD01990498401A34E0F06BFE
:104AD0000890DDE916230C99FFF7DBFE0090716C5E
:104AE0000191884210D90598FFF746FD08E00000C3
:104AF000FC51002048454150500000204E4F4E458B
:104B0000DDE90001401A46E00C98042280000146CD
:104B100001904046FFF7A6FE039008B100201CE07C
:104B2000D8F844400598FFF727FDBAF1000F07D0E9
:104B30000198A04200D9001B386042F2E27054E0B4
:104B40000298F6E7DDE916123046FFF78BFE90B1CA
:104B5000039941F8280008F101000C998046884229
:104B6000F0D3A64220D1C4E902B55FEA0B0016D00B
:104B7000CBF80C4015E0F56B746C0598FFF7FCFC66
:104B80000C98DDE91623A0EB08012846FFF781FE0B
:104B9000A04200D9001B386042F2D87025E06E4870
:104BA00004603DB1AC6005E07069C4E90460746103
:104BB00000B104616948C4E900060898A061009941
:104BC00008980844401EE061039820620098A062A3
:104BD00017986063169820630C98E0620C986062E6
:104BE0000598FFF7C9FC42F21070A9F800004BE7E6
:104BF00070B50D460446FFF7BBFC646AFFF7BCFCCA
:104C000042F210702880204670BD70B515460446EB
:104C1000FFF7AEFC616A49B1E26A91420BD9FFF736
:104C2000ABFC42F295702880002070BDFFF7A4FC19
:104C300042F2DE70F7E7491E6162226A52F82140B3
:104C4000FFF79AFC42F210702880204670BD70B5C4
:104C500014460E460546FFF78BFCEA6A911B491E77
:104C600042F295768A4202D96A6A8A4204D9FFF7EB
:104C700083FC2680002070BD2A6A52F82150FFF77D
:104C80007BFC42F210702080284670BD2DE9F04177
:104C900016460D460446FFF76BFCE76A626A8446D7
:104CA000BA4204D3FFF768FC42F2DD701EE04FF019
:104CB000000E1346206A04E050F82310A94205D0E4
:104CC0005B1C9F42F8D8BEF1000F03D050F82210B1
:104CD00040F82310D4E9080140F82150606A401CD4
:104CE00060626046FFF748FC42F2107030803AE69E
:104CF0002DE9F04115460E4604464FF0FF37FFF709
:104D000037FC0246E16A606A884205D31046FFF725
:104D100033FC42F2DD701CE04FF0000C05E0236A2A
:104D200053F82030B34205D0401C8142F7D8BCF183
:104D3000000F09D00C1A1046641EFFF71DFC42F24A
:104D40001070288020460EE61046FFF715FC42F250
:104D500088702880384606E650000020504F4F4C9F
:104D6000002201E0401C521C18B103780BB18A42AA
:104D7000F8D3104670474FF0FF31F1E730B5002807
:104D800011D089B10346002405E0491C03F8015BFA
:104D9000641C4BB141B10D780DB19442F5D39442EE
:104DA00001D20021197030BD002030BD4FF0FF321C
:104DB000E4E730B5002816D0B1B1002A13D003467D
:104DC00001E05B1C10D01C78002CFAD104E0491CD7
:104DD00003F8015B641C3BB131B10D780DB1944215
:104DE000F5D30021197030BD002030BD4FF0FF32E7
:104DF000DFE7F0B532B330B111B304460B46401CC7
:104E0000491C002508E0E9B108784042F0BD401C8B
:104E1000491C5B1C641C6D1C26781F78BE4204D1A3
:104E20001EB110B109B19542F1D395420AD0F4B246
:104E3000FAB2944201D0B01AF0BD1EB10028E2D0FF
:104E40000078F0BD0020F0BD4FF0FF32D1E72DE932
:104E5000F0475FEA020A41D070B181B10446461CB6
:104E60000F464D1C0078FFF72AFC81463878FFF783
:104E700026FC4FF0000811E079B3087829E00078AB
:104E800021E008F1010814F8010F6D1C761C7F1C4D
:104E9000FFF715FC81463878FFF711FC814505D1F5
:104EA000217819B116B10DB1D045EAD3D04515D04E
:104EB0004946814503D0A9EB0000BDE8F087080012
:104EC000FBD026B13078BDE8F047FFF7F8BB25B13D
:104ED0002878FFF7F4FB4042EFE7FFE70020ECE71C
:104EE0004FF0FF32B3E710B5002812D081B1002394
:104EF00003E0401C03F101030BD004781CB1944281
:104F000001D08B42F5D38B4202D2E1B2914200D064
:104F1000002010BD0A464FF0FF31E4E730B51546DA
:104F200004000FD071B1491EFFF71AFF20180AD0F4
:104F300000E0401EA04202D00178A942F9D10178D8
:104F4000A94200D0002030BD0A464FF0FF31E5E70E
:104F500030B5002803D00BB1044607E0002030BD77
:104F60008D4200D122705B1E641CF8D02578002D84
:104F7000F5D0002BF4D130BD4FF0FF33E8E72DE939
:104F8000F0418C46060032D0BCF1000F2FD072B336
:104F9000501C01D0511C01E04FF0FF310D4611466D
:104FA0003046FFF7DDFE044629466046FFF7D8FE8F
:104FB000050014D0A5421AD8301911D01CEB0500F9
:104FC0000ED0671B0024301980462A466146FFF741
:104FD00010FF010006D00020641C28B106E0304616
:104FE000BDE8F0810120F7E7BC42ECD909B100200F
:104FF000F6E74046F4E74FF0FF32C0E72DE9FF5FE8
:10500000074611980E9D1446894600286CD000264C
:10501000B246B9F1000F00D10126A01E232800D30B
:10502000012615B32846FFF714FB01281CD1302DAB
:105030001BD0A5F13000C1B20F98012802D0A5F114
:10504000410001E0A5F16100C0B20A2C02D8A142E2
:1050500006D307E00A2903D3A4F10A01884201D24A
:10506000012000E0002000B10126119A56BBB8468D
:10507000012003E0B8FBF4F8401CC0B2A045F9D20F
:105080000399012900D0002100EB010CCC4518D870
:105090004FF0000B4B46484500D318464DB1A9EBE5
:1050A0000000401A4B4610F0FF0F04D0302D04D002
:1050B00001E00844C3B2002000E0012082460EB99E
:1050C00001E001264B461099D01809B1002101706A
:1050D0000021401E04E056B13F2200F80129491C7E
:1050E0009942F8D39EB3002004B0BDE8F09F27B9E1
:1050F00019B1039A012A16D024E0B7FBF4F204FB9D
:105100001272D2B20A2A01D2303207E0DDF83CC076
:10511000BCF1010F01D0373200E05732B7FBF4F792
:1051200000F80129DBE75AEA0B0205D0BAF1000FBB
:1051300008D05A1E914205D12D2200F801294FF0C6
:10514000010BCCE7002DCAD000F80159C7E7FFE7F3
:105150001198C9E77FB50DF1200C9CE870008DE82F
:1051600078000023FFF74AFF04B070BD2DE9FF412E
:105170001C46DDE90B650A9F002802DA4042012344
:1051800000E00023CDE90047CDE90265FFF736FFD7
:1051900004B025E72DE9FF5F1E4615465FEA0109C9
:1051A000824601D10DF10809C9F800A00E9808B98E
:1051B00003A80E90002101705FEA0A0003D0012DC0
:1051C00001D0242D01D900208EE70446007801E0AB
:1051D00014F8010FFFF72DFA0128F9D020782B28B9
:1051E00003D02D2805D0002007E04FF0000B641CF1
:1051F00004E0012E00D1641C01208346019425B1F6
:10520000082D11D0102D22D112E02078302801D0A5
:105210000A251CE014F8010F582803D0782801D083
:10522000082514E010250CE0207830280ED00EE080
:10523000207830280BD114F8010F582801D0782895
:1052400005D16078FFF7DFF9012800D1641C002642
:10525000B046009627783846FFF7ABF9012824D1ED
:105260003846FFF7C2F901280CD03846FFF7AFF9EE
:10527000012809D0373FF9B2A94216D2B8F1000F80
:1052800004D00EE0303FF6E7573FF4E71D4850F8F2
:105290002500B04203D306FB05168E4201D24FF023
:1052A00001080098641C0028D4D0B8F1010F01D186
:1052B0004FF0FF360198844202D0C9F8004001E067
:1052C000C9F800A00E99304681F800B00CE708B587
:1052D00000230093FFF75EFF08BD1CB501AB0093F0
:1052E0000123FFF757FF9DF804204FF0004122B142
:1052F000884200D2414208461CBD8842FCD36FF070
:1053000000401CBD90BB0008002800D17047002958
:1053100000D17047002A00D170472DE9F81F00F036
:10532000030301F00304A34211D1C3F1040303F00A
:105330000303012B1DD3012A00D2F2E011F8014B27
:1053400000F8014BA3F10103A2F10102F1E700F023
:10535000010301F00104A34200D094E0012B44D3E7
:1053600011F8014B00F8014BA3F10103A2F1010276
:10537000F4E7B2F5B47F26D3B1E8F81FA0E8F81F30
:10538000B1E8F81FA0E8F81FB1E8F81FA0E8F81F7F
:10539000B1E8F81FA0E8F81FB1E8F81FA0E8F81F6F
:1053A000B1E8F81FA0E8F81FB1E8F81FA0E8F81F5F
:1053B000B1E8F81FA0E8F81FB1E8F81FA0E8F81F4F
:1053C000A2F5B472D5E7282A06D3B1E8F81FA0E801
:1053D000F81FA2F12802F6E7042A06D351F8043B8D
:1053E00040F8043BA2F10402F6E7202A42D331F848
:1053F000023B20F8023B31F8023B20F8023B31F837
:10540000023B20F8023B31F8023B20F8023B31F826
:10541000023B20F8023B31F8023B20F8023B31F816
:10542000023B20F8023B31F8023B20F8023B31F806
:10543000023B20F8023B31F8023B20F8023B31F8F6
:10544000023B20F8023B31F8023B20F8023B31F8E6
:10545000023B20F8023B31F8023B20F8023B31F8D6
:10546000023B20F8023B31F8023B20F8023BA2F15C
:105470002002BAE7022A06D331F8023B20F8023BA9
:10548000A2F10202F6E7102A42D311F8013B00F81C
:10549000013B11F8013B00F8013B11F8013B00F81A
:1054A000013B11F8013B00F8013B11F8013B00F80A
:1054B000013B11F8013B00F8013B11F8013B00F8FA
:1054C000013B11F8013B00F8013B11F8013B00F8EA
:1054D000013B11F8013B00F8013B11F8013B00F8DA
:1054E000013B11F8013B00F8013B11F8013B00F8CA
:1054F000013B11F8013B00F8013B11F8013B00F8BA
:10550000013B11F8013B00F8013BA2F11002BAE7A0
:10551000012A06D311F8013B00F8013BA2F1010278
:10552000F6E7BDE8F81F704770470000F94CFFF739
:105530001FF82168491C2160FFF71EF804F09AFA51
:10554000F5E700B5F34A89B0002111600B220591FF
:105550000691CDE90720F048F04AF14B0068126847
:105560001B680292CDE903013F20CDE9000300232F
:10557000AFF24702EBA1F04802F095FD09B000BD83
:105580000020EE4B024600EB400103EB8101401C82
:105590000A810A60C0B24A604028F4D3704710B54F
:1055A000044604F06DFAE6480022F0490270E5482E
:1055B0000270E5480270E5480260E5480260E5488F
:1055C0000270E5480270E5480270E5480260E5486F
:1055D0000260E5480260086830B1E548006818B12B
:1055E000096804C0491EFCD1E2480260E24802603A
:1055F000E2480260E2480260E2480260E24802607B
:10560000E2480260E248027001F082FEFFF7B8FF54
:10561000204600F0F0FF2088002841D1204601F00C
:1056200030FA208800283BD1204601F053FA208828
:10563000002835D1204601F054FE208800282FD1C3
:10564000204602F091F92088002829D1204602F056
:1056500039FC2088002823D1204603F085FB2088D0
:1056600000281DD1204601F0BAF82088002817D163
:105670002046FFF766FF2088002811D1204603F05E
:1056800071FC208800280BD1204604F063F92088A3
:10569000002805D100F00EFCBDE81040FFF744BF24
:1056A00010BDA8480078012805D1A5490878FA2836
:1056B00001D2401C08707047A24810B5007801283C
:1056C0002BD1FEF755FF9E490446087800B3401ED3
:1056D00010F0FF0008701BD19B480078C0B901F0A2
:1056E00020FE9D490870954900EB400051F82000CC
:1056F0009749086095490968884209D050F8901F79
:10570000491C0160A3480168491C016004F050FF76
:105710002046BDE81040FEF72FBF10BD884810B5E9
:105720000078002824D188480078002820D1FEF78E
:105730001FFF044601F0F5FD874908707F4900EB23
:10574000400051F820008249086080490968884279
:1057500009D050F8901F491C01608E480168491C0F
:10576000016004F020FF2046BDE81040FEF704BFB2
:1057700010BD754810B50078012803D1FEF7FCFD77
:105780007749086010BD70B504466D48007810B1C7
:1057900046F6625019E06B480078012802D045F6C1
:1057A000896012E0684D2878FA2802D345F2092072
:1057B0000BE0FEF7DDFE06462878401C2870FFF758
:1057C000D8FF3046FEF7D8FE0020208070BD5E482E
:1057D00010B5007800280ED1FEF7CEFD60490968AB
:1057E000401A60490A68824200D208605E490A682D
:1057F000824200D2086010BD70B50446504800785F
:1058000010B146F6655023E04E480078012802D0DA
:1058100045F689601CE04C4E307870B1FEF7A8FE6A
:1058200005463078401E10F0FF00307008D0284642
:10583000FEF7A2FE46F663500AE046F6645007E023
:10584000FFF7C5FF2846FEF797FEFFF767FF00202A
:10585000208070BD70B53B4D0446287818B145F6E0
:105860008A60208070BD01F05CFD3B4908703949B9
:105870000870324900EB400051F8200034490860BC
:10588000324908600120287004F07CFE43F699201C
:10589000E7E70021018047F25C60704738B1426859
:1058A000C1F8C02081688968096AC161704791F8B0
:1058B0003400022803D0072803D037A002E037A025
:1058C00000E038A0C1F8C000704730B58A680025F4
:1058D00092F8374002891AB1521C028102680BE02B
:1058E000012202814D600D60016065E0936893F8CC
:1058F0003730A34203D85268002AF7D158E032B1BA
:1059000013682BB1C1E900325960116030BD4FE01E
:1059100054E000007800002038BC000834BC0008C7
:1059200030BC000875432F4F532D49494920496425
:105930006C65205461736B00D4680020686A002095
:105940007C0000207D000020C4000020FC0000201E
:1059500000010020AA000020AB000020AC000020C5
:10596000B8000020BC000020C00000205CBC000883
:1059700058BC00085C00002060000020640000208B
:10598000680000206C0000207000002074000020DF
:10599000DA000020D0000020200000005461736B6A
:1059A000205100005461736B2053656D00000000AE
:1059B0004D6042680A6051604160A7E71160C1E92B
:1059C00000520160A2E710B5C2870024234601639C
:1059D0000EE04B6041F8103B641C41F8103BA4B250
:1059E00041F80C3C21F8083C41F8043C41F8180C03
:1059F0009442EED310BD70B5044690F83700F849D4
:105A000000EB400001EB8001D4E90320002540B108
:105A10000B895B1E0B81C26092B110612561E5604C
:105A200070BD2AB10889401E088115610A60F5E73A
:105A30000D810D604D6094F8370001F090FCEDE7AA
:105A40004860EBE738B50446022531B16B460222C7
:105A500003F0C1FABDF8000028B184F836502046A2
:105A6000FFF7C9FF38BD032084F83600F7E72DE9BA
:105A7000F041DC4D07460C4628680026194680F8A0
:105A8000342080F83560FFF7DDFF64B1FC6004F17D
:105A90000806012239462868FFF795FF3946304647
:105AA000FFF713FF02E02868C687066320462968CF
:105AB000BDE8F041F2E610B502890024012A0BD0BE
:105AC0000A6862B14B6873B153601A600289521E52
:105AD00002814C600C6010BD04604460F6E74A68C7
